:020000040000FA
:020000000110ED
:020001000014E9
:020002000010EC
:02000300000CEF
:020004000008F2
:020005000004F5
:020006000000F8
:0200070001FCFA
:0200080001F8FD
:0200090001F400
:02000A0001F003
:02000B0001EC06
:02000C0001E809
:02000D0001E40C
:02000E0001E00F
:02000F0001DC12
:0200100001D815
:0200110001D418
:0200120001D01B
:0200130001CC1E
:0200140001C821
:0200150001C424
:0200160001C027
:0200170001BC2A
:0200180001B82D
:0200190001B430
:02001A0001B033
:02001B0001AC36
:02001C0001A839
:02001D0001A43C
:02001E0001A03F
:02001F00019C42
:02002000019845
:02002100019448
:0200220001904B
:02002300018C4E
:02002400018851
:02002500018454
:02002600018057
:02002700017C5A
:0200280001785D
:02002900017460
:02002A00017063
:02002B00016C66
:02002C00016869
:02002D0001646C
:02002E0001606F
:02002F00015C72
:02003000015875
:02003100015478
:0200320001507B
:02003300014C7E
:02003400014881
:02003500014484
:02003600014087
:02003700013C8A
:0200380001388D
:02003900013490
:02003A00013093
:02003B00012C96
:02003C00012899
:02003D0001249C
:02003E0001209F
:02003F00011CA2
:020040000118A5
:00000001ff
