:020000001fffe0
:020001001fffdf
:020002001fffde
:020003001fffdd
:020004001fffdc
:020005001fffdb
:020006001fffda
:020007001fffd9
:020008001fffd8
:020009001fffd7
:02000a001fffd6
:02000b001fffd5
:02000c001fffd4
:02000d001fffd3
:02000e001fffd2
:02000f001fffd1
:020010001fffd0
:020011001fffcf
:020012001fffce
:020013001fffcd
:020014001fffcc
:020015001fffcb
:020016001fffca
:020017001fffc9
:020018001fffc8
:020019001fffc7
:02001a001fffc6
:02001b001fffc5
:02001c001fffc4
:02001d001fffc3
:02001e001fffc2
:02001f001fffc1
:020020001fffc0
:020021001fffbf
:020022001fffbe
:020023001fffbd
:020024001fffbc
:020025001fffbb
:020026001fffba
:020027001fffb9
:020028001fffb8
:020029001fffb7
:02002a001fffb6
:02002b001fffb5
:02002c001fffb4
:02002d001fffb3
:02002e001fffb2
:02002f001fffb1
:020030001fffb0
:020031001fffaf
:020032001fffae
:020033001fffad
:020034001fffac
:020035001fffab
:020036001fffaa
:020037001fffa9
:020038001fffa8
:020039001fffa7
:02003a001fffa6
:02003b001fffa5
:02003c001fffa4
:02003d001fffa3
:02003e001fffa2
:02003f001fffa1
:020040001fffa0
:020041001fff9f
:020042001fff9e
:020043001fff9d
:020044001fff9c
:020045001fff9b
:020046001fff9a
:020047001fff99
:020048001fff98
:020049001fff97
:02004a001fff96
:02004b001fff95
:02004c001fff94
:02004d001fff93
:02004e001fff92
:02004f001fff91
:020050001fff90
:020051001fff8f
:020052001fff8e
:020053001fff8d
:020054001fff8c
:020055001fff8b
:020056001fff8a
:020057001fff89
:020058001fff88
:020059001fff87
:02005a001fff86
:02005b001fff85
:02005c001fff84
:02005d001fff83
:02005e001fff82
:02005f001fff81
:020060001fff80
:020061001fff7f
:020062001fff7e
:020063001fff7d
:020064001fff7c
:020065001fff7b
:020066001fff7a
:020067001fff79
:020068001fff78
:020069001fff77
:02006a001fff76
:02006b001fff75
:02006c001fff74
:02006d001fff73
:02006e001fff72
:02006f001fff71
:020070001fff70
:020071001fff6f
:020072001fff6e
:020073001fff6d
:020074001fff6c
:020075001fff6b
:020076001fff6a
:020077001fff69
:020078001fff68
:020079001fff67
:02007a001fff66
:02007b001fff65
:02007c001fff64
:02007d001fff63
:02007e001fff62
:02007f001fff61
:020080001fff60
:020081001fff5f
:020082001fff5e
:020083001fff5d
:020084001fff5c
:020085001fff5b
:020086001fff5a
:020087001fff59
:020088001fff58
:020089001fff57
:02008a001fff56
:02008b001fff55
:02008c001fff54
:02008d001fff53
:02008e001fff52
:02008f001fff51
:020090001fff50
:020091001fff4f
:020092001fff4e
:020093001fff4d
:020094001fff4c
:020095001fff4b
:020096001fff4a
:020097001fff49
:020098001fff48
:020099001fff47
:02009a001fff46
:02009b001fff45
:02009c001fff44
:02009d001fff43
:02009e001fff42
:02009f001fff41
:0200a0001fff40
:0200a1001fff3f
:0200a2001fff3e
:0200a3001fff3d
:0200a4001fff3c
:0200a5001fff3b
:0200a6001fff3a
:0200a7001fff39
:0200a8001fff38
:0200a9001fff37
:0200aa001fff36
:0200ab001fff35
:0200ac001fff34
:0200ad001fff33
:0200ae001fff32
:0200af001fff31
:0200b0001fff30
:0200b1001fff2f
:0200b2001fff2e
:0200b3001fff2d
:0200b4001fff2c
:0200b5001fff2b
:0200b6001fff2a
:0200b7001fff29
:0200b8001fff28
:0200b9001fff27
:0200ba001fff26
:0200bb001fff25
:0200bc001fff24
:0200bd001fff23
:0200be001fff22
:0200bf001fff21
:0200c0001fff20
:0200c1001fff1f
:0200c2001fff1e
:0200c3001fff1d
:0200c4001fff1c
:0200c5001fff1b
:0200c6001fff1a
:0200c7001fff19
:0200c8001fff18
:0200c9001fff17
:0200ca001fff16
:0200cb001fff15
:0200cc001fff14
:0200cd001fff13
:0200ce001fff12
:0200cf001fff11
:0200d0001fff10
:0200d1001fff0f
:0200d2001fff0e
:0200d3001fff0d
:0200d4001fff0c
:0200d5001fff0b
:0200d6001fff0a
:0200d7001fff09
:0200d8001fff08
:0200d9001fff07
:0200da001fff06
:0200db001fff05
:0200dc001fff04
:0200dd001fff03
:0200de001fff02
:0200df001fff01
:0200e0001fff00
:0200e1001fffff
:0200e2001ffffe
:0200e3001ffffd
:0200e4001ffffc
:0200e5001ffffb
:0200e6001ffffa
:0200e7001ffff9
:0200e8001ffff8
:0200e9001ffff7
:0200ea001ffff6
:0200eb001ffff5
:0200ec001ffff4
:0200ed001ffff3
:0200ee001ffff2
:0200ef001ffff1
:0200f0001ffff0
:0200f1001fffef
:0200f2001fffee
:0200f3001fffed
:0200f4001fffec
:0200f5001fffeb
:0200f6001fffea
:0200f7001fffe9
:0200f8001fffe8
:0200f9001fffe7
:0200fa001fffe6
:0200fb001fffe5
:0200fc001fffe4
:0200fd001fffe3
:0200fe001fffe2
:0200ff001fffe1
:020100001fffdf
:020101001fffde
:020102001fffdd
:020103001fffdc
:020104001fffdb
:020105001fffda
:020106001fffd9
:020107001fffd8
:020108001fffd7
:020109001fffd6
:02010a001fffd5
:02010b001fffd4
:02010c001fffd3
:02010d001fffd2
:02010e001fffd1
:02010f001fffd0
:020110001fffcf
:020111001fffce
:020112001fffcd
:020113001fffcc
:020114001fffcb
:020115001fffca
:020116001fffc9
:020117001fffc8
:020118001fffc7
:020119001fffc6
:02011a001fffc5
:02011b001fffc4
:02011c001fffc3
:02011d001fffc2
:02011e001fffc1
:02011f001fffc0
:020120001fffbf
:020121001fffbe
:020122001fffbd
:020123001fffbc
:020124001fffbb
:020125001fffba
:020126001fffb9
:020127001fffb8
:020128001fffb7
:020129001fffb6
:02012a001fffb5
:02012b001fffb4
:02012c001fffb3
:02012d001fffb2
:02012e001fffb1
:02012f001fffb0
:020130001fffaf
:020131001fffae
:020132001fffad
:020133001fffac
:020134001fffab
:020135001fffaa
:020136001fffa9
:020137001fffa8
:020138001fffa7
:020139001fffa6
:02013a001fffa5
:02013b001fffa4
:02013c001fffa3
:02013d001fffa2
:02013e001fffa1
:02013f001fffa0
:020140001fff9f
:020141001fff9e
:020142001fff9d
:020143001fff9c
:020144001fff9b
:020145001fff9a
:020146001fff99
:020147001fff98
:020148001fff97
:020149001fff96
:02014a001fff95
:02014b001fff94
:02014c001fff93
:02014d001fff92
:02014e001fff91
:02014f001fff90
:020150001fff8f
:020151001fff8e
:020152001fff8d
:020153001fff8c
:020154001fff8b
:020155001fff8a
:020156001fff89
:020157001fff88
:020158001fff87
:020159001fff86
:02015a001fff85
:02015b001fff84
:02015c001fff83
:02015d001fff82
:02015e001fff81
:02015f001fff80
:020160001fff7f
:020161001fff7e
:020162001fff7d
:020163001fff7c
:020164001fff7b
:020165001fff7a
:020166001fff79
:020167001fff78
:020168001fff77
:020169001fff76
:02016a001fff75
:02016b001fff74
:02016c001fff73
:02016d001fff72
:02016e001fff71
:02016f001fff70
:020170001fff6f
:020171001fff6e
:020172001fff6d
:020173001fff6c
:020174001fff6b
:020175001fff6a
:020176001fff69
:020177001fff68
:020178001fff67
:020179001fff66
:02017a001fff65
:02017b001fff64
:02017c001fff63
:02017d001fff62
:02017e001fff61
:02017f001fff60
:020180001fff5f
:020181001fff5e
:020182001fff5d
:020183001fff5c
:020184001fff5b
:020185001fff5a
:020186001fff59
:020187001fff58
:020188001fff57
:020189001fff56
:02018a001fff55
:02018b001fff54
:02018c001fff53
:02018d001fff52
:02018e001fff51
:02018f001fff50
:020190001fff4f
:020191001fff4e
:020192001fff4d
:020193001fff4c
:020194001fff4b
:020195001fff4a
:020196001fff49
:020197001fff48
:020198001fff47
:020199001fff46
:02019a001fff45
:02019b001fff44
:02019c001fff43
:02019d001fff42
:02019e001fff41
:02019f001fff40
:0201a0001fff3f
:0201a1001fff3e
:0201a2001fff3d
:0201a3001fff3c
:0201a4001fff3b
:0201a5001fff3a
:0201a6001fff39
:0201a7001fff38
:0201a8001fff37
:0201a9001fff36
:0201aa001fff35
:0201ab001fff34
:0201ac001fff33
:0201ad001fff32
:0201ae001fff31
:0201af001fff30
:0201b0001fff2f
:0201b1001fff2e
:0201b2001fff2d
:0201b3001fff2c
:0201b4001fff2b
:0201b5001fff2a
:0201b6001fff29
:0201b7001fff28
:0201b8001fff27
:0201b9001fff26
:0201ba001fff25
:0201bb001fff24
:0201bc001fff23
:0201bd001fff22
:0201be001fff21
:0201bf001fff20
:0201c0001fff1f
:0201c1001fff1e
:0201c2001fff1d
:0201c3001fff1c
:0201c4001fff1b
:0201c5001fff1a
:0201c6001fff19
:0201c7001fff18
:0201c8001fff17
:0201c9001fff16
:0201ca001fff15
:0201cb001fff14
:0201cc001fff13
:0201cd001fff12
:0201ce001fff11
:0201cf001fff10
:0201d0001fff0f
:0201d1001fff0e
:0201d2001fff0d
:0201d3001fff0c
:0201d4001fff0b
:0201d5001fff0a
:0201d6001fff09
:0201d7001fff08
:0201d8001fff07
:0201d9001fff06
:0201da001fff05
:0201db001fff04
:0201dc001fff03
:0201dd001fff02
:0201de001fff01
:0201df001fff00
:0201e0001fffff
:0201e1001ffffe
:0201e2001ffffd
:0201e3001ffffc
:0201e4001ffffb
:0201e5001ffffa
:0201e6001ffff9
:0201e7001ffff8
:0201e8001ffff7
:0201e9001ffff6
:0201ea001ffff5
:0201eb001ffff4
:0201ec001ffff3
:0201ed001ffff2
:0201ee001ffff1
:0201ef001ffff0
:0201f0001fffef
:0201f1001fffee
:0201f2001fffed
:0201f3001fffec
:0201f4001fffeb
:0201f5001fffea
:0201f6001fffe9
:0201f7001fffe8
:0201f8001fffe7
:0201f9001fffe6
:0201fa001fffe5
:0201fb001fffe4
:0201fc001fffe3
:0201fd001fffe2
:0201fe001fffe1
:0201ff001fffe0
:020200001fffde
:020201001fffdd
:020202001fffdc
:020203001fffdb
:020204001fffda
:020205001fffd9
:020206001fffd8
:020207001fffd7
:020208001fffd6
:020209001fffd5
:02020a001fffd4
:02020b001fffd3
:02020c001fffd2
:02020d001fffd1
:02020e001fffd0
:02020f001fffcf
:020210001fffce
:020211001fffcd
:020212001fffcc
:020213001fffcb
:020214001fffca
:020215001fffc9
:020216001fffc8
:020217001fffc7
:020218001fffc6
:020219001fffc5
:02021a001fffc4
:02021b001fffc3
:02021c001fffc2
:02021d001fffc1
:02021e001fffc0
:02021f001fffbf
:020220001fffbe
:020221001fffbd
:020222001fffbc
:020223001fffbb
:020224001fffba
:020225001fffb9
:020226001fffb8
:020227001fffb7
:020228001fffb6
:020229001fffb5
:02022a001fffb4
:02022b001fffb3
:02022c001fffb2
:02022d001fffb1
:02022e001fffb0
:02022f001fffaf
:020230001fffae
:020231001fffad
:020232001fffac
:020233001fffab
:020234001fffaa
:020235001fffa9
:020236001fffa8
:020237001fffa7
:020238001fffa6
:020239001fffa5
:02023a001fffa4
:02023b001fffa3
:02023c001fffa2
:02023d001fffa1
:02023e001fffa0
:02023f001fff9f
:020240001fff9e
:020241001fff9d
:020242001fff9c
:020243001fff9b
:020244001fff9a
:020245001fff99
:020246001fff98
:020247001fff97
:020248001fff96
:020249001fff95
:02024a001fff94
:02024b001fff93
:02024c001fff92
:02024d001fff91
:02024e001fff90
:02024f001fff8f
:020250001fff8e
:020251001fff8d
:020252001fff8c
:020253001fff8b
:020254001fff8a
:020255001fff89
:020256001fff88
:020257001fff87
:020258001fff86
:020259001fff85
:02025a001fff84
:02025b001fff83
:02025c001fff82
:02025d001fff81
:02025e001fff80
:02025f001fff7f
:020260001fff7e
:020261001fff7d
:020262001fff7c
:020263001fff7b
:020264001fff7a
:020265001fff79
:020266001fff78
:020267001fff77
:020268001fff76
:020269001fff75
:02026a001fff74
:02026b001fff73
:02026c001fff72
:02026d001fff71
:02026e001fff70
:02026f001fff6f
:020270001fff6e
:020271001fff6d
:020272001fff6c
:020273001fff6b
:020274001fff6a
:020275001fff69
:020276001fff68
:020277001fff67
:020278001fff66
:020279001fff65
:02027a001fff64
:02027b001fff63
:02027c001fff62
:02027d001fff61
:02027e001fff60
:02027f001fff5f
:020280001fff5e
:020281001fff5d
:020282001fff5c
:020283001fff5b
:020284001fff5a
:020285001fff59
:020286001fff58
:020287001fff57
:020288001fff56
:020289001fff55
:02028a001fff54
:02028b001fff53
:02028c001fff52
:02028d001fff51
:02028e001fff50
:02028f001fff4f
:020290001fff4e
:020291001fff4d
:020292001fff4c
:020293001fff4b
:020294001fff4a
:020295001fff49
:020296001fff48
:020297001fff47
:020298001fff46
:020299001fff45
:02029a001fff44
:02029b001fff43
:02029c001fff42
:02029d001fff41
:02029e001fff40
:02029f001fff3f
:0202a0001fff3e
:0202a1001fff3d
:0202a2001fff3c
:0202a3001fff3b
:0202a4001fff3a
:0202a5001fff39
:0202a6001fff38
:0202a7001fff37
:0202a8001fff36
:0202a9001fff35
:0202aa001fff34
:0202ab001fff33
:0202ac001fff32
:0202ad001fff31
:0202ae001fff30
:0202af001fff2f
:0202b0001fff2e
:0202b1001fff2d
:0202b2001fff2c
:0202b3001fff2b
:0202b4001fff2a
:0202b5001fff29
:0202b6001fff28
:0202b7001fff27
:0202b8001fff26
:0202b9001fff25
:0202ba001fff24
:0202bb001fff23
:0202bc001fff22
:0202bd001fff21
:0202be001fff20
:0202bf001fff1f
:0202c0001fff1e
:0202c1001fff1d
:0202c2001fff1c
:0202c3001fff1b
:0202c4001fff1a
:0202c5001fff19
:0202c6001fff18
:0202c7001fff17
:0202c8001fff16
:0202c9001fff15
:0202ca001fff14
:0202cb001fff13
:0202cc001fff12
:0202cd001fff11
:0202ce001fff10
:0202cf001fff0f
:0202d0001fff0e
:0202d1001fff0d
:0202d2001fff0c
:0202d3001fff0b
:0202d4001fff0a
:0202d5001fff09
:0202d6001fff08
:0202d7001fff07
:0202d8001fff06
:0202d9001fff05
:0202da001fff04
:0202db001fff03
:0202dc001fff02
:0202dd001fff01
:0202de001fff00
:0202df001fffff
:0202e0001ffffe
:0202e1001ffffd
:0202e2001ffffc
:0202e3001ffffb
:0202e4001ffffa
:0202e5001ffff9
:0202e6001ffff8
:0202e7001ffff7
:0202e8001ffff6
:0202e9001ffff5
:0202ea001ffff4
:0202eb001ffff3
:0202ec001ffff2
:0202ed001ffff1
:0202ee001ffff0
:0202ef001fffef
:0202f0001fffee
:0202f1001fffed
:0202f2001fffec
:0202f3001fffeb
:0202f4001fffea
:0202f5001fffe9
:0202f6001fffe8
:0202f7001fffe7
:0202f8001fffe6
:0202f9001fffe5
:0202fa001fffe4
:0202fb001fffe3
:0202fc001fffe2
:0202fd001fffe1
:0202fe001fffe0
:0202ff001fffdf
:020300001fffdd
:020301001fffdc
:020302001fffdb
:020303001fffda
:020304001fffd9
:020305001fffd8
:020306001fffd7
:020307001fffd6
:020308001fffd5
:020309001fffd4
:02030a001fffd3
:02030b001fffd2
:02030c001fffd1
:02030d001fffd0
:02030e001fffcf
:02030f001fffce
:020310001fffcd
:020311001fffcc
:020312001fffcb
:020313001fffca
:020314001fffc9
:020315001fffc8
:020316001fffc7
:020317001fffc6
:020318001fffc5
:020319001fffc4
:02031a001fffc3
:02031b001fffc2
:02031c001fffc1
:02031d001fffc0
:02031e001fffbf
:02031f001fffbe
:020320001fffbd
:020321001fffbc
:020322001fffbb
:020323001fffba
:020324001fffb9
:020325001fffb8
:020326001fffb7
:020327001fffb6
:020328001fffb5
:020329001fffb4
:02032a001fffb3
:02032b001fffb2
:02032c001fffb1
:02032d001fffb0
:02032e001fffaf
:02032f001fffae
:020330001fffad
:020331001fffac
:020332001fffab
:020333001fffaa
:020334001fffa9
:020335001fffa8
:020336001fffa7
:020337001fffa6
:020338001fffa5
:020339001fffa4
:02033a001fffa3
:02033b001fffa2
:02033c001fffa1
:02033d001fffa0
:02033e001fff9f
:02033f001fff9e
:020340001fff9d
:020341001fff9c
:020342001fff9b
:020343001fff9a
:020344001fff99
:020345001fff98
:020346001fff97
:020347001fff96
:020348001fff95
:020349001fff94
:02034a001fff93
:02034b001fff92
:02034c001fff91
:02034d001fff90
:02034e001fff8f
:02034f001fff8e
:020350001fff8d
:020351001fff8c
:020352001fff8b
:020353001fff8a
:020354001fff89
:020355001fff88
:020356001fff87
:020357001fff86
:020358001fff85
:020359001fff84
:02035a001fff83
:02035b001fff82
:02035c001fff81
:02035d001fff80
:02035e001fff7f
:02035f001fff7e
:020360001fff7d
:020361001fff7c
:020362001fff7b
:020363001fff7a
:020364001fff79
:020365001fff78
:020366001fff77
:020367001fff76
:020368001fff75
:020369001fff74
:02036a001fff73
:02036b001fff72
:02036c001fff71
:02036d001fff70
:02036e001fff6f
:02036f001fff6e
:020370001fff6d
:020371001fff6c
:020372001fff6b
:020373001fff6a
:020374001fff69
:020375001fff68
:020376001fff67
:020377001fff66
:020378001fff65
:020379001fff64
:02037a001fff63
:02037b001fff62
:02037c001fff61
:02037d001fff60
:02037e001fff5f
:02037f001fff5e
:020380001fff5d
:020381001fff5c
:020382001fff5b
:020383001fff5a
:020384001fff59
:020385001fff58
:020386001fff57
:020387001fff56
:020388001fff55
:020389001fff54
:02038a001fff53
:02038b001fff52
:02038c001fff51
:02038d001fff50
:02038e001fff4f
:02038f001fff4e
:020390001fff4d
:020391001fff4c
:020392001fff4b
:020393001fff4a
:020394001fff49
:020395001fff48
:020396001fff47
:020397001fff46
:020398001fff45
:020399001fff44
:02039a001fff43
:02039b001fff42
:02039c001fff41
:02039d001fff40
:02039e001fff3f
:02039f001fff3e
:0203a0001fff3d
:0203a1001fff3c
:0203a2001fff3b
:0203a3001fff3a
:0203a4001fff39
:0203a5001fff38
:0203a6001fff37
:0203a7001fff36
:0203a8001fff35
:0203a9001fff34
:0203aa001fff33
:0203ab001fff32
:0203ac001fff31
:0203ad001fff30
:0203ae001fff2f
:0203af001fff2e
:0203b0001fff2d
:0203b1001fff2c
:0203b2001fff2b
:0203b3001fff2a
:0203b4001fff29
:0203b5001fff28
:0203b6001fff27
:0203b7001fff26
:0203b8001fff25
:0203b9001fff24
:0203ba001fff23
:0203bb001fff22
:0203bc001fff21
:0203bd001fff20
:0203be001fff1f
:0203bf001fff1e
:0203c0001fff1d
:0203c1001fff1c
:0203c2001fff1b
:0203c3001fff1a
:0203c4001fff19
:0203c5001fff18
:0203c6001fff17
:0203c7001fff16
:0203c8001fff15
:0203c9001fff14
:0203ca001fff13
:0203cb001fff12
:0203cc001fff11
:0203cd001fff10
:0203ce001fff0f
:0203cf001fff0e
:0203d0001fff0d
:0203d1001fff0c
:0203d2001fff0b
:0203d3001fff0a
:0203d4001fff09
:0203d5001fff08
:0203d6001fff07
:0203d7001fff06
:0203d8001fff05
:0203d9001fff04
:0203da001fff03
:0203db001fff02
:0203dc001fff01
:0203dd001fff00
:0203de001fffff
:0203df001ffffe
:0203e0001ffffd
:0203e1001ffffc
:0203e2001ffffb
:0203e3001ffffa
:0203e4001ffff9
:0203e5001ffff8
:0203e6001ffff7
:0203e7001ffff6
:0203e8001ffff5
:0203e9001ffff4
:0203ea001ffff3
:0203eb001ffff2
:0203ec001ffff1
:0203ed001ffff0
:0203ee001fffef
:0203ef001fffee
:0203f0001fffed
:0203f1001fffec
:0203f2001fffeb
:0203f3001fffea
:0203f4001fffe9
:0203f5001fffe8
:0203f6001fffe7
:0203f7001fffe6
:0203f8001fffe5
:0203f9001fffe4
:0203fa001fffe3
:0203fb001fffe2
:0203fc001fffe1
:0203fd001fffe0
:0203fe001fffdf
:0203ff001fffde
:020400001fffdc
:020401001fffdb
:020402001fffda
:020403001fffd9
:020404001fffd8
:020405001fffd7
:020406001fffd6
:020407001fffd5
:020408001fffd4
:020409001fffd3
:02040a001fffd2
:02040b001fffd1
:02040c001fffd0
:02040d001fffcf
:02040e001fffce
:02040f001fffcd
:020410001fffcc
:020411001fffcb
:020412001fffca
:020413001fffc9
:020414001fffc8
:020415001fffc7
:020416001fffc6
:020417001fffc5
:020418001fffc4
:020419001fffc3
:02041a001fffc2
:02041b001fffc1
:02041c001fffc0
:02041d001fffbf
:02041e001fffbe
:02041f001fffbd
:020420001fffbc
:020421001fffbb
:020422001fffba
:020423001fffb9
:020424001fffb8
:020425001fffb7
:020426001fffb6
:020427001fffb5
:020428001fffb4
:020429001fffb3
:02042a001fffb2
:02042b001fffb1
:02042c001fffb0
:02042d001fffaf
:02042e001fffae
:02042f001fffad
:020430001fffac
:020431001fffab
:020432001fffaa
:020433001fffa9
:020434001fffa8
:020435001fffa7
:020436001fffa6
:020437001fffa5
:020438001fffa4
:020439001fffa3
:02043a001fffa2
:02043b001fffa1
:02043c001fffa0
:02043d001fff9f
:02043e001fff9e
:02043f001fff9d
:020440001fff9c
:020441001fff9b
:020442001fff9a
:020443001fff99
:020444001fff98
:020445001fff97
:020446001fff96
:020447001fff95
:020448001fff94
:020449001fff93
:02044a001fff92
:02044b001fff91
:02044c001fff90
:02044d001fff8f
:02044e001fff8e
:02044f001fff8d
:020450001fff8c
:020451001fff8b
:020452001fff8a
:020453001fff89
:020454001fff88
:020455001fff87
:020456001fff86
:020457001fff85
:020458001fff84
:020459001fff83
:02045a001fff82
:02045b001fff81
:02045c001fff80
:02045d001fff7f
:02045e001fff7e
:02045f001fff7d
:020460001fff7c
:020461001fff7b
:020462001fff7a
:020463001fff79
:020464001fff78
:020465001fff77
:020466001fff76
:020467001fff75
:020468001fff74
:020469001fff73
:02046a001fff72
:02046b001fff71
:02046c001fff70
:02046d001fff6f
:02046e001fff6e
:02046f001fff6d
:020470001fff6c
:020471001fff6b
:020472001fff6a
:020473001fff69
:020474001fff68
:020475001fff67
:020476001fff66
:020477001fff65
:020478001fff64
:020479001fff63
:02047a001fff62
:02047b001fff61
:02047c001fff60
:02047d001fff5f
:02047e001fff5e
:02047f001fff5d
:020480001fff5c
:020481001fff5b
:020482001fff5a
:020483001fff59
:020484001fff58
:020485001fff57
:020486001fff56
:020487001fff55
:020488001fff54
:020489001fff53
:02048a001fff52
:02048b001fff51
:02048c001fff50
:02048d001fff4f
:02048e001fff4e
:02048f001fff4d
:020490001fff4c
:020491001fff4b
:020492001fff4a
:020493001fff49
:020494001fff48
:020495001fff47
:020496001fff46
:020497001fff45
:020498001fff44
:020499001fff43
:02049a001fff42
:02049b001fff41
:02049c001fff40
:02049d001fff3f
:02049e001fff3e
:02049f001fff3d
:0204a0001fff3c
:0204a1001fff3b
:0204a2001fff3a
:0204a3001fff39
:0204a4001fff38
:0204a5001fff37
:0204a6001fff36
:0204a7001fff35
:0204a8001fff34
:0204a9001fff33
:0204aa001fff32
:0204ab001fff31
:0204ac001fff30
:0204ad001fff2f
:0204ae001fff2e
:0204af001fff2d
:0204b0001fff2c
:0204b1001fff2b
:0204b2001fff2a
:0204b3001fff29
:0204b4001fff28
:0204b5001fff27
:0204b6001fff26
:0204b7001fff25
:0204b8001fff24
:0204b9001fff23
:0204ba001fff22
:0204bb001fff21
:0204bc001fff20
:0204bd001fff1f
:0204be001fff1e
:0204bf001fff1d
:0204c0001fff1c
:0204c1001fff1b
:0204c2001fff1a
:0204c3001fff19
:0204c4001fff18
:0204c5001fff17
:0204c6001fff16
:0204c7001fff15
:0204c8001fff14
:0204c9001fff13
:0204ca001fff12
:0204cb001fff11
:0204cc001fff10
:0204cd001fff0f
:0204ce001fff0e
:0204cf001fff0d
:0204d0001fff0c
:0204d1001fff0b
:0204d2001fff0a
:0204d3001fff09
:0204d4001fff08
:0204d5001fff07
:0204d6001fff06
:0204d7001fff05
:0204d8001fff04
:0204d9001fff03
:0204da001fff02
:0204db001fff01
:0204dc001fff00
:0204dd001fffff
:0204de001ffffe
:0204df001ffffd
:0204e0001ffffc
:0204e1001ffffb
:0204e2001ffffa
:0204e3001ffff9
:0204e4001ffff8
:0204e5001ffff7
:0204e6001ffff6
:0204e7001ffff5
:0204e8001ffff4
:0204e9001ffff3
:0204ea001ffff2
:0204eb001ffff1
:0204ec001ffff0
:0204ed001fffef
:0204ee001fffee
:0204ef001fffed
:0204f0001fffec
:0204f1001fffeb
:0204f2001fffea
:0204f3001fffe9
:0204f4001fffe8
:0204f5001fffe7
:0204f6001fffe6
:0204f7001fffe5
:0204f8001fffe4
:0204f9001fffe3
:0204fa001fffe2
:0204fb001fffe1
:0204fc001fffe0
:0204fd001fffdf
:0204fe001fffde
:0204ff001fffdd
:020500001fffdb
:020501001fffda
:020502001fffd9
:020503001fffd8
:020504001fffd7
:020505001fffd6
:020506001fffd5
:020507001fffd4
:020508001fffd3
:020509001fffd2
:02050a001fffd1
:02050b001fffd0
:02050c001fffcf
:02050d001fffce
:02050e001fffcd
:02050f001fffcc
:020510001fffcb
:020511001fffca
:020512001fffc9
:020513001fffc8
:020514001fffc7
:020515001fffc6
:020516001fffc5
:020517001fffc4
:020518001fffc3
:020519001fffc2
:02051a001fffc1
:02051b001fffc0
:02051c001fffbf
:02051d001fffbe
:02051e001fffbd
:02051f001fffbc
:020520001fffbb
:020521001fffba
:020522001fffb9
:020523001fffb8
:020524001fffb7
:020525001fffb6
:020526001fffb5
:020527001fffb4
:020528001fffb3
:020529001fffb2
:02052a001fffb1
:02052b001fffb0
:02052c001fffaf
:02052d001fffae
:02052e001fffad
:02052f001fffac
:020530001fffab
:020531001fffaa
:020532001fffa9
:020533001fffa8
:020534001fffa7
:020535001fffa6
:020536001fffa5
:020537001fffa4
:020538001fffa3
:020539001fffa2
:02053a001fffa1
:02053b001fffa0
:02053c001fff9f
:02053d001fff9e
:02053e001fff9d
:02053f001fff9c
:020540001fff9b
:020541001fff9a
:020542001fff99
:020543001fff98
:020544001fff97
:020545001fff96
:020546001fff95
:020547001fff94
:020548001fff93
:020549001fff92
:02054a001fff91
:02054b001fff90
:02054c001fff8f
:02054d001fff8e
:02054e001fff8d
:02054f001fff8c
:020550001fff8b
:020551001fff8a
:020552001fff89
:020553001fff88
:020554001fff87
:020555001fff86
:020556001fff85
:020557001fff84
:020558001fff83
:020559001fff82
:02055a001fff81
:02055b001fff80
:02055c001fff7f
:02055d001fff7e
:02055e001fff7d
:02055f001fff7c
:020560001fff7b
:020561001fff7a
:020562001fff79
:020563001fff78
:020564001fff77
:020565001fff76
:020566001fff75
:020567001fff74
:020568001fff73
:020569001fff72
:02056a001fff71
:02056b001fff70
:02056c001fff6f
:02056d001fff6e
:02056e001fff6d
:02056f001fff6c
:020570001fff6b
:020571001fff6a
:020572001fff69
:020573001fff68
:020574001fff67
:020575001fff66
:020576001fff65
:020577001fff64
:020578001fff63
:020579001fff62
:02057a001fff61
:02057b001fff60
:02057c001fff5f
:02057d001fff5e
:02057e001fff5d
:02057f001fff5c
:020580001fff5b
:020581001fff5a
:020582001fff59
:020583001fff58
:020584001fff57
:020585001fff56
:020586001fff55
:020587001fff54
:020588001fff53
:020589001fff52
:02058a001fff51
:02058b001fff50
:02058c001fff4f
:02058d001fff4e
:02058e001fff4d
:02058f001fff4c
:020590001fff4b
:020591001fff4a
:020592001fff49
:020593001fff48
:020594001fff47
:020595001fff46
:020596001fff45
:020597001fff44
:020598001fff43
:020599001fff42
:02059a001fff41
:02059b001fff40
:02059c001fff3f
:02059d001fff3e
:02059e001fff3d
:02059f001fff3c
:0205a0001fff3b
:0205a1001fff3a
:0205a2001fff39
:0205a3001fff38
:0205a4001fff37
:0205a5001fff36
:0205a6001fff35
:0205a7001fff34
:0205a8001fff33
:0205a9001fff32
:0205aa001fff31
:0205ab001fff30
:0205ac001fff2f
:0205ad001fff2e
:0205ae001fff2d
:0205af001fff2c
:0205b0001fff2b
:0205b1001fff2a
:0205b2001fff29
:0205b3001fff28
:0205b4001fff27
:0205b5001fff26
:0205b6001fff25
:0205b7001fff24
:0205b8001fff23
:0205b9001fff22
:0205ba001fff21
:0205bb001fff20
:0205bc001fff1f
:0205bd001fff1e
:0205be001fff1d
:0205bf001fff1c
:0205c0001fff1b
:0205c1001fff1a
:0205c2001fff19
:0205c3001fff18
:0205c4001fff17
:0205c5001fff16
:0205c6001fff15
:0205c7001fff14
:0205c8001fff13
:0205c9001fff12
:0205ca001fff11
:0205cb001fff10
:0205cc001fff0f
:0205cd001fff0e
:0205ce001fff0d
:0205cf001fff0c
:0205d0001fff0b
:0205d1001fff0a
:0205d2001fff09
:0205d3001fff08
:0205d4001fff07
:0205d5001fff06
:0205d6001fff05
:0205d7001fff04
:0205d8001fff03
:0205d9001fff02
:0205da001fff01
:0205db001fff00
:0205dc001fffff
:0205dd001ffffe
:0205de001ffffd
:0205df001ffffc
:0205e0001ffffb
:0205e1001ffffa
:0205e2001ffff9
:0205e3001ffff8
:0205e4001ffff7
:0205e5001ffff6
:0205e6001ffff5
:0205e7001ffff4
:0205e8001ffff3
:0205e9001ffff2
:0205ea001ffff1
:0205eb001ffff0
:0205ec001fffef
:0205ed001fffee
:0205ee001fffed
:0205ef001fffec
:0205f0001fffeb
:0205f1001fffea
:0205f2001fffe9
:0205f3001fffe8
:0205f4001fffe7
:0205f5001fffe6
:0205f6001fffe5
:0205f7001fffe4
:0205f8001fffe3
:0205f9001fffe2
:0205fa001fffe1
:0205fb001fffe0
:0205fc001fffdf
:0205fd001fffde
:0205fe001fffdd
:0205ff001fffdc
:020600001fffda
:020601001fffd9
:020602001fffd8
:020603001fffd7
:020604001fffd6
:020605001fffd5
:020606001fffd4
:020607001fffd3
:020608001fffd2
:020609001fffd1
:02060a001fffd0
:02060b001fffcf
:02060c001fffce
:02060d001fffcd
:02060e001fffcc
:02060f001fffcb
:020610001fffca
:020611001fffc9
:020612001fffc8
:020613001fffc7
:020614001fffc6
:020615001fffc5
:020616001fffc4
:020617001fffc3
:020618001fffc2
:020619001fffc1
:02061a001fffc0
:02061b001fffbf
:02061c001fffbe
:02061d001fffbd
:02061e001fffbc
:02061f001fffbb
:020620001fffba
:020621001fffb9
:020622001fffb8
:020623001fffb7
:020624001fffb6
:020625001fffb5
:020626001fffb4
:020627001fffb3
:020628001fffb2
:020629001fffb1
:02062a001fffb0
:02062b001fffaf
:02062c001fffae
:02062d001fffad
:02062e001fffac
:02062f001fffab
:020630001fffaa
:020631001fffa9
:020632001fffa8
:020633001fffa7
:020634001fffa6
:020635001fffa5
:020636001fffa4
:020637001fffa3
:020638001fffa2
:020639001fffa1
:02063a001fffa0
:02063b001fff9f
:02063c001fff9e
:02063d001fff9d
:02063e001fff9c
:02063f001fff9b
:020640001fff9a
:020641001fff99
:020642001fff98
:020643001fff97
:020644001fff96
:020645001fff95
:020646001fff94
:020647001fff93
:020648001fff92
:020649001fff91
:02064a001fff90
:02064b001fff8f
:02064c001fff8e
:02064d001fff8d
:02064e001fff8c
:02064f001fff8b
:020650001fff8a
:020651001fff89
:020652001fff88
:020653001fff87
:020654001fff86
:020655001fff85
:020656001fff84
:020657001fff83
:020658001fff82
:020659001fff81
:02065a001fff80
:02065b001fff7f
:02065c001fff7e
:02065d001fff7d
:02065e001fff7c
:02065f001fff7b
:020660001fff7a
:020661001fff79
:020662001fff78
:020663001fff77
:020664001fff76
:020665001fff75
:020666001fff74
:020667001fff73
:020668001fff72
:020669001fff71
:02066a001fff70
:02066b001fff6f
:02066c001fff6e
:02066d001fff6d
:02066e001fff6c
:02066f001fff6b
:020670001fff6a
:020671001fff69
:020672001fff68
:020673001fff67
:020674001fff66
:020675001fff65
:020676001fff64
:020677001fff63
:020678001fff62
:020679001fff61
:02067a001fff60
:02067b001fff5f
:02067c001fff5e
:02067d001fff5d
:02067e001fff5c
:02067f001fff5b
:020680001fff5a
:020681001fff59
:020682001fff58
:020683001fff57
:020684001fff56
:020685001fff55
:020686001fff54
:020687001fff53
:020688001fff52
:020689001fff51
:02068a001fff50
:02068b001fff4f
:02068c001fff4e
:02068d001fff4d
:02068e001fff4c
:02068f001fff4b
:020690001fff4a
:020691001fff49
:020692001fff48
:020693001fff47
:020694001fff46
:020695001fff45
:020696001fff44
:020697001fff43
:020698001fff42
:020699001fff41
:02069a001fff40
:02069b001fff3f
:02069c001fff3e
:02069d001fff3d
:02069e001fff3c
:02069f001fff3b
:0206a0001fff3a
:0206a1001fff39
:0206a2001fff38
:0206a3001fff37
:0206a4001fff36
:0206a5001fff35
:0206a6001fff34
:0206a7001fff33
:0206a8001fff32
:0206a9001fff31
:0206aa001fff30
:0206ab001fff2f
:0206ac001fff2e
:0206ad001fff2d
:0206ae001fff2c
:0206af001fff2b
:0206b0001fff2a
:0206b1001fff29
:0206b2001fff28
:0206b3001fff27
:0206b4001fff26
:0206b5001fff25
:0206b6001fff24
:0206b7001fff23
:0206b8001fff22
:0206b9001fff21
:0206ba001fff20
:0206bb001fff1f
:0206bc001fff1e
:0206bd001fff1d
:0206be001fff1c
:0206bf001fff1b
:0206c0001fff1a
:0206c1001fff19
:0206c2001fff18
:0206c3001fff17
:0206c4001fff16
:0206c5001fff15
:0206c6001fff14
:0206c7001fff13
:0206c8001fff12
:0206c9001fff11
:0206ca001fff10
:0206cb001fff0f
:0206cc001fff0e
:0206cd001fff0d
:0206ce001fff0c
:0206cf001fff0b
:0206d0001fff0a
:0206d1001fff09
:0206d2001fff08
:0206d3001fff07
:0206d4001fff06
:0206d5001fff05
:0206d6001fff04
:0206d7001fff03
:0206d8001fff02
:0206d9001fff01
:0206da001fff00
:0206db001fffff
:0206dc001ffffe
:0206dd001ffffd
:0206de001ffffc
:0206df001ffffb
:0206e0001ffffa
:0206e1001ffff9
:0206e2001ffff8
:0206e3001ffff7
:0206e4001ffff6
:0206e5001ffff5
:0206e6001ffff4
:0206e7001ffff3
:0206e8001ffff2
:0206e9001ffff1
:0206ea001ffff0
:0206eb001fffef
:0206ec001fffee
:0206ed001fffed
:0206ee001fffec
:0206ef001fffeb
:0206f0001fffea
:0206f1001fffe9
:0206f2001fffe8
:0206f3001fffe7
:0206f4001fffe6
:0206f5001fffe5
:0206f6001fffe4
:0206f7001fffe3
:0206f8001fffe2
:0206f9001fffe1
:0206fa001fffe0
:0206fb001fffdf
:0206fc001fffde
:0206fd001fffdd
:0206fe001fffdc
:0206ff001fffdb
:020700001fffd9
:020701001fffd8
:020702001fffd7
:020703001fffd6
:020704001fffd5
:020705001fffd4
:020706001fffd3
:020707001fffd2
:020708001fffd1
:020709001fffd0
:02070a001fffcf
:02070b001fffce
:02070c001fffcd
:02070d001fffcc
:02070e001fffcb
:02070f001fffca
:020710001fffc9
:020711001fffc8
:020712001fffc7
:020713001fffc6
:020714001fffc5
:020715001fffc4
:020716001fffc3
:020717001fffc2
:020718001fffc1
:020719001fffc0
:02071a001fffbf
:02071b001fffbe
:02071c001fffbd
:02071d001fffbc
:02071e001fffbb
:02071f001fffba
:020720001fffb9
:020721001fffb8
:020722001fffb7
:020723001fffb6
:020724001fffb5
:020725001fffb4
:020726001fffb3
:020727001fffb2
:020728001fffb1
:020729001fffb0
:02072a001fffaf
:02072b001fffae
:02072c001fffad
:02072d001fffac
:02072e001fffab
:02072f001fffaa
:020730001fffa9
:020731001fffa8
:020732001fffa7
:020733001fffa6
:020734001fffa5
:020735001fffa4
:020736001fffa3
:020737001fffa2
:020738001fffa1
:020739001fffa0
:02073a001fff9f
:02073b001fff9e
:02073c001fff9d
:02073d001fff9c
:02073e001fff9b
:02073f001fff9a
:020740001fff99
:020741001fff98
:020742001fff97
:020743001fff96
:020744001fff95
:020745001fff94
:020746001fff93
:020747001fff92
:020748001fff91
:020749001fff90
:02074a001fff8f
:02074b001fff8e
:02074c001fff8d
:02074d001fff8c
:02074e001fff8b
:02074f001fff8a
:020750001fff89
:020751001fff88
:020752001fff87
:020753001fff86
:020754001fff85
:020755001fff84
:020756001fff83
:020757001fff82
:020758001fff81
:020759001fff80
:02075a001fff7f
:02075b001fff7e
:02075c001fff7d
:02075d001fff7c
:02075e001fff7b
:02075f001fff7a
:020760001fff79
:020761001fff78
:020762001fff77
:020763001fff76
:020764001fff75
:020765001fff74
:020766001fff73
:020767001fff72
:020768001fff71
:020769001fff70
:02076a001fff6f
:02076b001fff6e
:02076c001fff6d
:02076d001fff6c
:02076e001fff6b
:02076f001fff6a
:020770001fff69
:020771001fff68
:020772001fff67
:020773001fff66
:020774001fff65
:020775001fff64
:020776001fff63
:020777001fff62
:020778001fff61
:020779001fff60
:02077a001fff5f
:02077b001fff5e
:02077c001fff5d
:02077d001fff5c
:02077e001fff5b
:02077f001fff5a
:020780001fff59
:020781001fff58
:020782001fff57
:020783001fff56
:020784001fff55
:020785001fff54
:020786001fff53
:020787001fff52
:020788001fff51
:020789001fff50
:02078a001fff4f
:02078b001fff4e
:02078c001fff4d
:02078d001fff4c
:02078e001fff4b
:02078f001fff4a
:020790001fff49
:020791001fff48
:020792001fff47
:020793001fff46
:020794001fff45
:020795001fff44
:020796001fff43
:020797001fff42
:020798001fff41
:020799001fff40
:02079a001fff3f
:02079b001fff3e
:02079c001fff3d
:02079d001fff3c
:02079e001fff3b
:02079f001fff3a
:0207a0001fff39
:0207a1001fff38
:0207a2001fff37
:0207a3001fff36
:0207a4001fff35
:0207a5001fff34
:0207a6001fff33
:0207a7001fff32
:0207a8001fff31
:0207a9001fff30
:0207aa001fff2f
:0207ab001fff2e
:0207ac001fff2d
:0207ad001fff2c
:0207ae001fff2b
:0207af001fff2a
:0207b0001fff29
:0207b1001fff28
:0207b2001fff27
:0207b3001fff26
:0207b4001fff25
:0207b5001fff24
:0207b6001fff23
:0207b7001fff22
:0207b8001fff21
:0207b9001fff20
:0207ba001fff1f
:0207bb001fff1e
:0207bc001fff1d
:0207bd001fff1c
:0207be001fff1b
:0207bf001fff1a
:0207c0001fff19
:0207c1001fff18
:0207c2001fff17
:0207c3001fff16
:0207c4001fff15
:0207c5001fff14
:0207c6001fff13
:0207c7001fff12
:0207c8001fff11
:0207c9001fff10
:0207ca001fff0f
:0207cb001fff0e
:0207cc001fff0d
:0207cd001fff0c
:0207ce001fff0b
:0207cf001fff0a
:0207d0001fff09
:0207d1001fff08
:0207d2001fff07
:0207d3001fff06
:0207d4001fff05
:0207d5001fff04
:0207d6001fff03
:0207d7001fff02
:0207d8001fff01
:0207d9001fff00
:0207da001fffff
:0207db001ffffe
:0207dc001ffffd
:0207dd001ffffc
:0207de001ffffb
:0207df001ffffa
:0207e0001ffff9
:0207e1001ffff8
:0207e2001ffff7
:0207e3001ffff6
:0207e4001ffff5
:0207e5001ffff4
:0207e6001ffff3
:0207e7001ffff2
:0207e8001ffff1
:0207e9001ffff0
:0207ea001fffef
:0207eb001fffee
:0207ec001fffed
:0207ed001fffec
:0207ee001fffeb
:0207ef001fffea
:0207f0001fffe9
:0207f1001fffe8
:0207f2001fffe7
:0207f3001fffe6
:0207f4001fffe5
:0207f5001fffe4
:0207f6001fffe3
:0207f7001fffe2
:0207f8001fffe1
:0207f9001fffe0
:0207fa001fffdf
:0207fb001fffde
:0207fc001fffdd
:0207fd001fffdc
:0207fe001fffdb
:0207ff001fffda
:00000001FF
