:020000000000fe
:020001000019e4
:020002000032ca
:02000300004bb0
:02000400006595
:02000500007e7b
:02000600009761
:0200070000b047
:0200080000c92d
:0200090000e213
:02000a0000fbf9
:02000b000114de
:02000c00012dc4
:02000d000147a9
:02000e0001608f
:02000f00017975
:0200100001925b
:0200110001ab41
:0200120001c427
:0200130001dd0d
:0200140001f6f3
:02001500020fd8
:020016000228be
:020017000242a3
:02001800025b89
:0200190002746f
:02001a00028d55
:02001b0002a63b
:02001c0002bf21
:02001d0002d807
:02001e0002f1ed
:02001f00030ad2
:020020000323b8
:02002100033c9e
:02002200035584
:02002300036e6a
:02002400038750
:0200250003a036
:0200260003b91c
:0200270003d202
:0200280003ebe8
:020029000404cd
:02002a00041db3
:02002b0004359a
:02002c00044e80
:02002d00046766
:02002e0004804c
:02002f00049932
:0200300004b218
:0200310004cbfe
:0200320004e4e4
:0200330004fccb
:020034000515b0
:02003500052e96
:0200360005477c
:02003700056062
:02003800057849
:0200390005912f
:02003a0005aa15
:02003b0005c3fb
:02003c0005dbe2
:02003d0005f4c8
:02003e00060dad
:02003f00062594
:02004000063e7a
:02004100065760
:02004200066f47
:0200430006882d
:0200440006a014
:0200450006b9fa
:0200460006d2e0
:0200470006eac7
:020048000703ac
:02004900071b93
:02004a00073479
:02004b00074c60
:02004c00076546
:02004d00077d2d
:02004e00079514
:02004f0007aefa
:0200500007c6e1
:0200510007dfc7
:0200520007f7ae
:02005300080f94
:0200540008287a
:02005500084061
:02005600085848
:0200570008702f
:02005800088915
:0200590008a1fc
:02005a0008b9e3
:02005b0008d1ca
:02005c0008e9b1
:02005d00090197
:02005e00091a7d
:02005f00093264
:02006000094a4b
:02006100096232
:02006200097a19
:02006300099200
:0200640009aae7
:0200650009c2ce
:0200660009dab5
:0200670009f19d
:020068000a0983
:020069000a216a
:02006a000a3951
:02006b000a5138
:02006c000a691f
:02006d000a8007
:02006e000a98ee
:02006f000ab0d5
:020070000ac7bd
:020071000adfa4
:020072000af78b
:020073000b0e72
:020074000b2659
:020075000b3d41
:020076000b5528
:020077000b6c10
:020078000b84f7
:020079000b9bdf
:02007a000bb3c6
:02007b000bcaae
:02007c000be196
:02007d000bf97d
:02007e000c1064
:02007f000c274c
:020080000c3f33
:020081000c561b
:020082000c6d03
:020083000c84eb
:020084000c9bd3
:020085000cb2bb
:020086000cc9a3
:020087000ce08b
:020088000cf773
:020089000d0e5a
:02008a000d2542
:02008b000d3c2a
:02008c000d5312
:02008d000d6afa
:02008e000d81e2
:02008f000d97cb
:020090000daeb3
:020091000dc59b
:020092000ddb84
:020093000df26c
:020094000e0953
:020095000e1f3c
:020096000e3624
:020097000e4c0d
:020098000e63f5
:020099000e79de
:02009a000e90c6
:02009b000ea6af
:02009c000ebc98
:02009d000ed380
:02009e000ee969
:02009f000eff52
:0200a0000f153a
:0200a1000f2b23
:0200a2000f410c
:0200a3000f58f4
:0200a4000f6edd
:0200a5000f84c6
:0200a6000f9aaf
:0200a7000faf99
:0200a8000fc582
:0200a9000fdb6b
:0200aa000ff154
:0200ab0010073c
:0200ac00101c26
:0200ad0010320f
:0200ae001048f8
:0200af00105de2
:0200b0001073cb
:0200b1001089b4
:0200b200109e9e
:0200b30010b388
:0200b40010c971
:0200b50010de5b
:0200b60010f444
:0200b70011092d
:0200b800111e17
:0200b900113301
:0200ba001149ea
:0200bb00115ed4
:0200bc001173be
:0200bd001188a8
:0200be00119d92
:0200bf0011b27c
:0200c00011c766
:0200c10011dc50
:0200c20011f03b
:0200c300120524
:0200c400121a0e
:0200c500122ff8
:0200c6001243e3
:0200c7001258cd
:0200c800126cb8
:0200c9001281a2
:0200ca0012958d
:0200cb0012aa77
:0200cc0012be62
:0200cd0012d34c
:0200ce0012e737
:0200cf0012fb22
:0200d000130f0c
:0200d1001324f6
:0200d2001338e1
:0200d300134ccc
:0200d4001360b7
:0200d5001374a2
:0200d60013888d
:0200d700139c78
:0200d80013af64
:0200d90013c34f
:0200da0013d73a
:0200db0013eb25
:0200dc0013fe11
:0200dd001412fb
:0200de001425e7
:0200df001439d2
:0200e000144cbe
:0200e1001460a9
:0200e200147395
:0200e300148681
:0200e400149a6c
:0200e50014ad58
:0200e60014c044
:0200e70014d330
:0200e80014e61c
:0200e90014f908
:0200ea00150cf3
:0200eb00151fdf
:0200ec001532cb
:0200ed001545b7
:0200ee001557a4
:0200ef00156a90
:0200f000157d7c
:0200f100158f69
:0200f20015a255
:0200f30015b442
:0200f40015c72e
:0200f50015d91b
:0200f60015ec07
:0200f70015fef4
:0200f8001610e0
:0200f9001622cd
:0200fa001634ba
:0200fb001646a7
:0200fc00165894
:0200fd00166a81
:0200fe00167c6e
:0200ff00168e5b
:0201000016a047
:0201010016b234
:0201020016c322
:0201030016d50f
:0201040016e7fc
:0201050016f8ea
:02010600170ad6
:02010700171bc4
:02010800172cb2
:02010900173e9f
:02010a00174f8d
:02010b0017607b
:02010c00177169
:02010d00178257
:02010e00179345
:02010f0017a433
:0201100017b521
:0201110017c60f
:0201120017d7fd
:0201130017e8eb
:0201140017f8da
:020115001809c7
:020116001819b6
:02011700182aa4
:02011800183a93
:02011900184b81
:02011a00185b70
:02011b00186b5f
:02011c00187b4e
:02011d00188c3c
:02011e00189c2b
:02011f0018ac1a
:0201200018bc09
:0201210018ccf8
:0201220018dbe8
:0201230018ebd7
:0201240018fbc6
:02012500190bb4
:02012600191aa4
:02012700192a93
:02012800193983
:02012900194972
:02012a00195862
:02012b00196752
:02012c00197741
:02012d00198631
:02012e00199521
:02012f0019a411
:0201300019b301
:0201310019c2f1
:0201320019d1e1
:0201330019e0d1
:0201340019eec2
:0201350019fdb2
:020136001a0ca1
:020137001a1a92
:020138001a2982
:020139001a3773
:02013a001a4663
:02013b001a5454
:02013c001a6245
:02013d001a7036
:02013e001a7f26
:02013f001a8d17
:020140001a9b08
:020141001aa8fa
:020142001ab6eb
:020143001ac4dc
:020144001ad2cd
:020145001ae0be
:020146001aedb0
:020147001afba1
:020148001b0892
:020149001b1683
:02014a001b2375
:02014b001b3067
:02014c001b3d59
:02014d001b4b4a
:02014e001b583c
:02014f001b652e
:020150001b7220
:020151001b7f12
:020152001b8b05
:020153001b98f7
:020154001ba5e9
:020155001bb1dc
:020156001bbece
:020157001bcac1
:020158001bd7b3
:020159001be3a6
:02015a001bf098
:02015b001bfc8b
:02015c001c087d
:02015d001c1470
:02015e001c2063
:02015f001c2c56
:020160001c3849
:020161001c443c
:020162001c4f30
:020163001c5b23
:020164001c6716
:020165001c720a
:020166001c7efd
:020167001c89f1
:020168001c94e5
:020169001ca0d8
:02016a001cabcc
:02016b001cb6c0
:02016c001cc1b4
:02016d001ccca8
:02016e001cd79c
:02016f001ce290
:020170001ced84
:020171001cf779
:020172001d026c
:020173001d0c61
:020174001d1755
:020175001d214a
:020176001d2c3e
:020177001d3633
:020178001d4028
:020179001d4a1d
:02017a001d5511
:02017b001d5f06
:02017c001d68fc
:02017d001d72f1
:02017e001d7ce6
:02017f001d86db
:020180001d8fd1
:020181001d99c6
:020182001da3bb
:020183001dacb1
:020184001db5a7
:020185001dbf9c
:020186001dc892
:020187001dd188
:020188001dda7e
:020189001de374
:02018a001dec6a
:02018b001df560
:02018c001dfe56
:02018d001e064c
:02018e001e0f42
:02018f001e1838
:020190001e202f
:020191001e2925
:020192001e311c
:020193001e3913
:020194001e410a
:020195001e4a00
:020196001e52f7
:020197001e5aee
:020198001e62e5
:020199001e69dd
:02019a001e71d4
:02019b001e79cb
:02019c001e81c2
:02019d001e88ba
:02019e001e90b1
:02019f001e97a9
:0201a0001e9ea1
:0201a1001ea698
:0201a2001ead90
:0201a3001eb488
:0201a4001ebb80
:0201a5001ec278
:0201a6001ec970
:0201a7001ed068
:0201a8001ed661
:0201a9001edd59
:0201aa001ee451
:0201ab001eea4a
:0201ac001ef142
:0201ad001ef73b
:0201ae001efd34
:0201af001f032c
:0201b0001f0a24
:0201b1001f101d
:0201b2001f1616
:0201b3001f1c0f
:0201b4001f2109
:0201b5001f2702
:0201b6001f2dfb
:0201b7001f32f5
:0201b8001f38ee
:0201b9001f3de8
:0201ba001f43e1
:0201bb001f48db
:0201bc001f4dd5
:0201bd001f53ce
:0201be001f58c8
:0201bf001f5dc2
:0201c0001f62bc
:0201c1001f66b7
:0201c2001f6bb1
:0201c3001f70ab
:0201c4001f75a5
:0201c5001f79a0
:0201c6001f7e9a
:0201c7001f8295
:0201c8001f8690
:0201c9001f8b8a
:0201ca001f8f85
:0201cb001f9380
:0201cc001f977b
:0201cd001f9b76
:0201ce001f9f71
:0201cf001fa36c
:0201d0001fa668
:0201d1001faa63
:0201d2001fae5e
:0201d3001fb15a
:0201d4001fb456
:0201d5001fb851
:0201d6001fbb4d
:0201d7001fbe49
:0201d8001fc145
:0201d9001fc441
:0201da001fc73d
:0201db001fca39
:0201dc001fcd35
:0201dd001fd031
:0201de001fd22e
:0201df001fd52a
:0201e0001fd826
:0201e1001fda23
:0201e2001fdc20
:0201e3001fdf1c
:0201e4001fe119
:0201e5001fe316
:0201e6001fe513
:0201e7001fe710
:0201e8001fe90d
:0201e9001feb0a
:0201ea001fec08
:0201eb001fee05
:0201ec001ff002
:0201ed001ff100
:0201ee001ff3fd
:0201ef001ff4fb
:0201f0001ff5f9
:0201f1001ff6f7
:0201f2001ff7f5
:0201f3001ff8f3
:0201f4001ff9f1
:0201f5001ffaef
:0201f6001ffbed
:0201f7001ffceb
:0201f8001ffde9
:0201f9001ffde8
:0201fa001ffee6
:0201fb001ffee5
:0201fc001ffee4
:0201fd001fffe2
:0201fe001fffe1
:0201ff001fffe0
:020200001fffde
:020201001fffdd
:020202001fffdc
:020203001fffdb
:020204001ffedb
:020205001ffeda
:020206001ffed9
:020207001ffdd9
:020208001ffdd8
:020209001ffcd8
:02020a001ffbd8
:02020b001ffad8
:02020c001ff9d8
:02020d001ff8d8
:02020e001ff7d8
:02020f001ff6d8
:020210001ff5d8
:020211001ff4d8
:020212001ff3d8
:020213001ff1d9
:020214001ff0d9
:020215001feeda
:020216001fecdb
:020217001febdb
:020218001fe9dc
:020219001fe7dd
:02021a001fe5de
:02021b001fe3df
:02021c001fe1e0
:02021d001fdfe1
:02021e001fdce3
:02021f001fdae4
:020220001fd8e5
:020221001fd5e7
:020222001fd2e9
:020223001fd0ea
:020224001fcdec
:020225001fcaee
:020226001fc7f0
:020227001fc4f2
:020228001fc1f4
:020229001fbef6
:02022a001fbbf8
:02022b001fb8fa
:02022c001fb4fd
:02022d001fb1ff
:02022e001fae01
:02022f001faa04
:020230001fa607
:020231001fa309
:020232001f9f0c
:020233001f9b0f
:020234001f9712
:020235001f9315
:020236001f8f18
:020237001f8b1b
:020238001f861f
:020239001f8222
:02023a001f7e25
:02023b001f7929
:02023c001f752c
:02023d001f7030
:02023e001f6b34
:02023f001f6638
:020240001f623b
:020241001f5d3f
:020242001f5843
:020243001f5347
:020244001f4d4c
:020245001f4850
:020246001f4354
:020247001f3d59
:020248001f385d
:020249001f3262
:02024a001f2d66
:02024b001f276b
:02024c001f2170
:02024d001f1c74
:02024e001f1679
:02024f001f107e
:020250001f0a83
:020251001f0389
:020252001efd8f
:020253001ef794
:020254001ef199
:020255001eea9f
:020256001ee4a4
:020257001eddaa
:020258001ed6b0
:020259001ed0b5
:02025a001ec9bb
:02025b001ec2c1
:02025c001ebbc7
:02025d001eb4cd
:02025e001eadd3
:02025f001ea6d9
:020260001e9ee0
:020261001e97e6
:020262001e90ec
:020263001e88f3
:020264001e81f9
:020265001e7900
:020266001e7107
:020267001e690e
:020268001e6214
:020269001e5a1b
:02026a001e5222
:02026b001e4a29
:02026c001e4131
:02026d001e3938
:02026e001e313f
:02026f001e2946
:020270001e204e
:020271001e1855
:020272001e0f5d
:020273001e0665
:020274001dfe6d
:020275001df575
:020276001dec7d
:020277001de385
:020278001dda8d
:020279001dd195
:02027a001dc89d
:02027b001dbfa5
:02027c001db5ae
:02027d001dacb6
:02027e001da3be
:02027f001d99c7
:020280001d8fd0
:020281001d86d8
:020282001d7ce1
:020283001d72ea
:020284001d68f3
:020285001d5ffb
:020286001d5504
:020287001d4a0e
:020288001d4017
:020289001d3620
:02028a001d2c29
:02028b001d2133
:02028c001d173c
:02028d001d0c46
:02028e001d024f
:02028f001cf75a
:020290001ced63
:020291001ce26d
:020292001cd777
:020293001ccc81
:020294001cc18b
:020295001cb695
:020296001cab9f
:020297001ca0a9
:020298001c94b4
:020299001c89be
:02029a001c7ec8
:02029b001c72d3
:02029c001c67dd
:02029d001c5be8
:02029e001c4ff3
:02029f001c44fd
:0202a0001c3808
:0202a1001c2c13
:0202a2001c201e
:0202a3001c1429
:0202a4001c0834
:0202a5001bfc40
:0202a6001bf04b
:0202a7001be357
:0202a8001bd762
:0202a9001bca6e
:0202aa001bbe79
:0202ab001bb185
:0202ac001ba590
:0202ad001b989c
:0202ae001b8ba8
:0202af001b7fb3
:0202b0001b72bf
:0202b1001b65cb
:0202b2001b58d7
:0202b3001b4be3
:0202b4001b3df0
:0202b5001b30fc
:0202b6001b2308
:0202b7001b1614
:0202b8001b0821
:0202b9001afb2e
:0202ba001aed3b
:0202bb001ae047
:0202bc001ad254
:0202bd001ac461
:0202be001ab66e
:0202bf001aa87b
:0202c0001a9b87
:0202c1001a8d94
:0202c2001a7fa1
:0202c3001a70af
:0202c4001a62bc
:0202c5001a54c9
:0202c6001a46d6
:0202c7001a37e4
:0202c8001a29f1
:0202c9001a1aff
:0202ca001a0c0c
:0202cb0019fd1b
:0202cc0019ee29
:0202cd0019e036
:0202ce0019d144
:0202cf0019c252
:0202d00019b360
:0202d10019a46e
:0202d20019957c
:0202d30019868a
:0202d400197798
:0202d5001967a7
:0202d6001958b5
:0202d7001949c3
:0202d8001939d2
:0202d900192ae0
:0202da00191aef
:0202db00190bfd
:0202dc0018fb0d
:0202dd0018eb1c
:0202de0018db2b
:0202df0018cc39
:0202e00018bc48
:0202e10018ac57
:0202e200189c66
:0202e300188c75
:0202e400187b85
:0202e500186b94
:0202e600185ba3
:0202e700184bb2
:0202e800183ac2
:0202e900182ad1
:0202ea001819e1
:0202eb001809f0
:0202ec0017f801
:0202ed0017e810
:0202ee0017d720
:0202ef0017c630
:0202f00017b540
:0202f10017a450
:0202f200179360
:0202f300178270
:0202f400177180
:0202f500176090
:0202f600174fa0
:0202f700173eb0
:0202f800172cc1
:0202f900171bd1
:0202fa00170ae1
:0202fb0016f8f3
:0202fc0016e703
:0202fd0016d514
:0202fe0016c325
:0202ff0016b235
:0203000016a045
:02030100168e56
:02030200167c67
:02030300166a78
:02030400165889
:0203050016469a
:020306001634ab
:020307001622bc
:020308001610cd
:0203090015fedf
:02030a0015ecf0
:02030b0015d902
:02030c0015c713
:02030d0015b425
:02030e0015a236
:02030f00158f48
:02031000157d59
:02031100156a6b
:0203120015577d
:0203130015458e
:020314001532a0
:02031500151fb2
:02031600150cc4
:0203170014f9d7
:0203180014e6e9
:0203190014d3fb
:02031a0014c00d
:02031b0014ad1f
:02031c00149a31
:02031d00148644
:02031e00147356
:02031f00146068
:02032000144c7b
:0203210014398d
:020322001425a0
:020323001412b2
:0203240013fec6
:0203250013ebd8
:0203260013d7eb
:0203270013c3fe
:0203280013af11
:02032900139c23
:02032a00138836
:02032b00137449
:02032c0013605c
:02032d00134c6f
:02032e00133882
:02032f00132495
:02033000130fa9
:0203310012fbbd
:0203320012e7d0
:0203330012d3e3
:0203340012bef7
:0203350012aa0a
:0203360012951e
:02033700128131
:02033800126c45
:02033900125858
:02033a0012436c
:02033b00122f7f
:02033c00121a93
:02033d001205a7
:02033e0011f0bc
:02033f0011dccf
:0203400011c7e3
:0203410011b2f7
:02034200119d0b
:0203430011881f
:02034400117333
:02034500115e47
:0203460011495b
:02034700113370
:02034800111e84
:02034900110998
:02034a0010f4ad
:02034b0010dec2
:02034c0010c9d6
:02034d0010b3eb
:02034e00109eff
:02034f00108913
:02035000107328
:02035100105d3d
:02035200104851
:02035300103266
:02035400101c7b
:0203550010078f
:020356000ff1a5
:020357000fdbba
:020358000fc5cf
:020359000fafe4
:02035a000f9af8
:02035b000f840d
:02035c000f6e22
:02035d000f5837
:02035e000f414d
:02035f000f2b62
:020360000f1577
:020361000eff8d
:020362000ee9a2
:020363000ed3b7
:020364000ebccd
:020365000ea6e2
:020366000e90f7
:020367000e790d
:020368000e6322
:020369000e4c38
:02036a000e364d
:02036b000e1f63
:02036c000e0978
:02036d000df28f
:02036e000ddba5
:02036f000dc5ba
:020370000daed0
:020371000d97e6
:020372000d81fb
:020373000d6a11
:020374000d5327
:020375000d3c3d
:020376000d2553
:020377000d0e69
:020378000cf780
:020379000ce096
:02037a000cc9ac
:02037b000cb2c2
:02037c000c9bd8
:02037d000c84ee
:02037e000c6d04
:02037f000c561a
:020380000c3f30
:020381000c2747
:020382000c105d
:020383000bf974
:020384000be18b
:020385000bcaa1
:020386000bb3b7
:020387000b9bce
:020388000b84e4
:020389000b6cfb
:02038a000b5511
:02038b000b3d28
:02038c000b263e
:02038d000b0e55
:02038e000af76c
:02038f000adf83
:020390000ac79a
:020391000ab0b0
:020392000a98c7
:020393000a80de
:020394000a69f4
:020395000a510b
:020396000a3922
:020397000a2139
:020398000a0950
:0203990009f168
:02039a0009da7e
:02039b0009c295
:02039c0009aaac
:02039d000992c3
:02039e00097ada
:02039f000962f1
:0203a000094a08
:0203a10009321f
:0203a200091a36
:0203a30009014e
:0203a40008e966
:0203a50008d17d
:0203a60008b994
:0203a70008a1ab
:0203a8000889c2
:0203a9000870da
:0203aa000858f1
:0203ab00084008
:0203ac0008281f
:0203ad00080f37
:0203ae0007f74f
:0203af0007df66
:0203b00007c67e
:0203b10007ae95
:0203b2000795ad
:0203b300077dc4
:0203b4000765db
:0203b500074cf3
:0203b60007340a
:0203b700071b22
:0203b800070339
:0203b90006ea52
:0203ba0006d269
:0203bb0006b981
:0203bc0006a099
:0203bd000688b0
:0203be00066fc8
:0203bf000657df
:0203c000063ef7
:0203c10006250f
:0203c200060d26
:0203c30005f43f
:0203c40005db57
:0203c50005c36e
:0203c60005aa86
:0203c70005919e
:0203c8000578b6
:0203c9000560cd
:0203ca000547e5
:0203cb00052efd
:0203cc00051515
:0203cd0004fc2e
:0203ce0004e445
:0203cf0004cb5d
:0203d00004b275
:0203d10004998d
:0203d2000480a5
:0203d3000467bd
:0203d400044ed5
:0203d5000435ed
:0203d600041d04
:0203d70004041c
:0203d80003eb35
:0203d90003d24d
:0203da0003b965
:0203db0003a07d
:0203dc00038795
:0203dd00036ead
:0203de000355c5
:0203df00033cdd
:0203e0000323f5
:0203e100030a0d
:0203e20002f126
:0203e30002d83e
:0203e40002bf56
:0203e50002a66e
:0203e600028d86
:0203e70002749e
:0203e800025bb6
:0203e9000242ce
:0203ea000228e7
:0203eb00020fff
:0203ec0001f618
:0203ed0001dd30
:0203ee0001c448
:0203ef0001ab60
:0203f000019278
:0203f100017990
:0203f2000160a8
:0203f3000147c0
:0203f400012dd9
:0203f5000114f1
:0203f60000fb0a
:0203f70000e222
:0203f80000c93a
:0203f90000b052
:0203fa0000976a
:0203fb00007e82
:0203fc0000659a
:0203fd00004bb3
:0203fe000032cb
:0203ff000019e3
:020400000000fa
:020401003fe7d3
:020402003fceeb
:020403003fb503
:020404003f9b1c
:020405003f8234
:020406003f694c
:020407003f5064
:020408003f377c
:020409003f1e94
:02040a003f05ac
:02040b003eecc5
:02040c003ed3dd
:02040d003eb9f6
:02040e003ea00e
:02040f003e8726
:020410003e6e3e
:020411003e5556
:020412003e3c6e
:020413003e2386
:020414003e0a9e
:020415003df1b7
:020416003dd8cf
:020417003dbee8
:020418003da500
:020419003d8c18
:02041a003d7330
:02041b003d5a48
:02041c003d4160
:02041d003d2878
:02041e003d0f90
:02041f003cf6a9
:020420003cddc1
:020421003cc4d9
:020422003cabf1
:020423003c9209
:020424003c7921
:020425003c6039
:020426003c4751
:020427003c2e69
:020428003c1581
:020429003bfc9a
:02042a003be3b2
:02042b003bcbc9
:02042c003bb2e1
:02042d003b99f9
:02042e003b8011
:02042f003b6729
:020430003b4e41
:020431003b3559
:020432003b1c71
:020433003b0488
:020434003aeba1
:020435003ad2b9
:020436003ab9d1
:020437003aa0e9
:020438003a8800
:020439003a6f18
:02043a003a5630
:02043b003a3d48
:02043c003a255f
:02043d003a0c77
:02043e0039f390
:02043f0039dba7
:0204400039c2bf
:0204410039a9d7
:020442003991ee
:02044300397806
:0204440039601d
:02044500394735
:02044600392e4d
:02044700391664
:0204480038fd7d
:0204490038e594
:02044a0038ccac
:02044b0038b4c3
:02044c00389bdb
:02044d003883f2
:02044e00386b09
:02044f00385221
:02045000383a38
:02045100382150
:02045200380967
:0204530037f17f
:0204540037d897
:0204550037c0ae
:0204560037a8c5
:020457003790dc
:020458003777f4
:02045900375f0b
:02045a00374722
:02045b00372f39
:02045c00371750
:02045d0036ff68
:02045e0036e680
:02045f0036ce97
:0204600036b6ae
:02046100369ec5
:020462003686dc
:02046300366ef3
:0204640036560a
:02046500363e21
:02046600362638
:02046700360f4e
:0204680035f766
:0204690035df7d
:02046a0035c794
:02046b0035afab
:02046c003597c2
:02046d003580d8
:02046e003568ef
:02046f00355006
:0204700035391c
:02047100352133
:0204720035094a
:0204730034f261
:0204740034da78
:0204750034c38e
:0204760034aba5
:020477003494bb
:02047800347cd2
:020479003465e8
:02047a00344dff
:02047b00343615
:02047c00341f2b
:02047d00340742
:02047e0033f059
:02047f0033d96f
:0204800033c186
:0204810033aa9c
:020482003393b2
:02048300337cc8
:020484003365de
:02048500334ef4
:0204860033370a
:02048700332020
:02048800330936
:0204890032f24d
:02048a0032db63
:02048b0032c479
:02048c0032ad8f
:02048d003296a5
:02048e00327fbb
:02048f003269d0
:020490003252e6
:02049100323bfc
:02049200322511
:02049300320e27
:0204940031f73e
:0204950031e153
:0204960031ca69
:0204970031b47e
:02049800319d94
:020499003187a9
:02049a003170bf
:02049b00315ad4
:02049c003144e9
:02049d00312dff
:02049e00311714
:02049f00310129
:0204a00030eb3f
:0204a10030d554
:0204a20030bf69
:0204a30030a87f
:0204a400309294
:0204a500307ca9
:0204a6003066be
:0204a7003051d2
:0204a800303be7
:0204a9003025fc
:0204aa00300f11
:0204ab002ff927
:0204ac002fe43b
:0204ad002fce50
:0204ae002fb865
:0204af002fa379
:0204b0002f8d8e
:0204b1002f77a3
:0204b2002f62b7
:0204b3002f4dcb
:0204b4002f37e0
:0204b5002f22f4
:0204b6002f0c09
:0204b7002ef71e
:0204b8002ee232
:0204b9002ecd46
:0204ba002eb75b
:0204bb002ea26f
:0204bc002e8d83
:0204bd002e7897
:0204be002e63ab
:0204bf002e4ebf
:0204c0002e39d3
:0204c1002e24e7
:0204c2002e10fa
:0204c3002dfb0f
:0204c4002de623
:0204c5002dd137
:0204c6002dbd4a
:0204c7002da85e
:0204c8002d9471
:0204c9002d7f85
:0204ca002d6b98
:0204cb002d56ac
:0204cc002d42bf
:0204cd002d2dd3
:0204ce002d19e6
:0204cf002d05f9
:0204d0002cf10d
:0204d1002cdc21
:0204d2002cc834
:0204d3002cb447
:0204d4002ca05a
:0204d5002c8c6d
:0204d6002c7880
:0204d7002c6493
:0204d8002c51a5
:0204d9002c3db8
:0204da002c29cb
:0204db002c15de
:0204dc002c02f0
:0204dd002bee04
:0204de002bdb16
:0204df002bc729
:0204e0002bb43b
:0204e1002ba04e
:0204e2002b8d60
:0204e3002b7a72
:0204e4002b6685
:0204e5002b5397
:0204e6002b40a9
:0204e7002b2dbb
:0204e8002b1acd
:0204e9002b07df
:0204ea002af4f2
:0204eb002ae104
:0204ec002ace16
:0204ed002abb28
:0204ee002aa939
:0204ef002a964b
:0204f0002a835d
:0204f1002a716e
:0204f2002a5e80
:0204f3002a4c91
:0204f4002a39a3
:0204f5002a27b4
:0204f6002a14c6
:0204f7002a02d7
:0204f80029f0e9
:0204f90029defa
:0204fa0029cc0b
:0204fb0029ba1c
:0204fc0029a82d
:0204fd0029963e
:0204fe0029844f
:0204ff00297260
:02050000296070
:02050100294e81
:02050200293d91
:02050300292ba2
:020504002919b3
:020505002908c3
:0205060028f6d5
:0205070028e5e5
:0205080028d4f5
:0205090028c206
:02050a0028b116
:02050b0028a026
:02050c00288f36
:02050d00287e46
:02050e00286d56
:02050f00285c66
:02051000284b76
:02051100283a86
:02051200282996
:020513002818a6
:020514002808b5
:0205150027f7c6
:0205160027e7d5
:0205170027d6e5
:0205180027c6f4
:0205190027b504
:02051a0027a513
:02051b00279522
:02051c00278531
:02051d00277441
:02051e00276450
:02051f0027545f
:0205200027446e
:0205210027347d
:0205220027258b
:0205230027159a
:020524002705a9
:0205250026f5b9
:0205260026e6c7
:0205270026d6d6
:0205280026c7e4
:0205290026b7f3
:02052a0026a801
:02052b0026990f
:02052c0026891e
:02052d00267a2c
:02052e00266b3a
:02052f00265c48
:02053000264d56
:02053100263e64
:02053200262f72
:02053300262080
:0205340026128d
:0205350026039b
:0205360025f4aa
:0205370025e6b7
:0205380025d7c5
:0205390025c9d2
:02053a0025bae0
:02053b0025aced
:02053c00259efa
:02053d00259007
:02053e00258115
:02053f00257322
:0205400025652f
:0205410025583b
:02054200254a48
:02054300253c55
:02054400252e62
:0205450025206f
:0205460025137b
:02054700250588
:0205480024f895
:0205490024eaa2
:02054a0024ddae
:02054b0024d0ba
:02054c0024c3c6
:02054d0024b5d3
:02054e0024a8df
:02054f00249beb
:02055000248ef7
:02055100248103
:0205520024750e
:0205530024681a
:02055400245b26
:02055500244f31
:0205560024423d
:02055700243648
:02055800242954
:02055900241d5f
:02055a0024106b
:02055b00240476
:02055c0023f882
:02055d0023ec8d
:02055e0023e098
:02055f0023d4a3
:0205600023c8ae
:0205610023bcb9
:0205620023b1c3
:0205630023a5ce
:020564002399d9
:02056500238ee3
:020566002382ee
:020567002377f8
:02056800236c02
:0205690023600d
:02056a00235517
:02056b00234a21
:02056c00233f2b
:02056d00233435
:02056e0023293f
:02056f00231e49
:02057000231353
:0205710023095c
:0205720022fe67
:0205730022f470
:0205740022e97a
:0205750022df83
:0205760022d48d
:0205770022ca96
:0205780022c09f
:0205790022b6a8
:02057a0022abb2
:02057b0022a1bb
:02057c002298c3
:02057d00228ecc
:02057e002284d5
:02057f00227ade
:020580002271e6
:020581002267ef
:02058200225df8
:02058300225400
:02058400224b08
:02058500224111
:02058600223819
:02058700222f21
:02058800222629
:02058900221d31
:02058a00221439
:02058b00220b41
:02058c00220249
:02058d0021fa51
:02058e0021f159
:02058f0021e861
:0205900021e068
:0205910021d770
:0205920021cf77
:0205930021c77e
:0205940021bf85
:0205950021b68d
:0205960021ae94
:0205970021a69b
:02059800219ea2
:020599002197a8
:02059a00218faf
:02059b002187b6
:02059c00217fbd
:02059d002178c3
:02059e002170ca
:02059f002169d0
:0205a0002162d6
:0205a100215add
:0205a2002153e3
:0205a300214ce9
:0205a4002145ef
:0205a500213ef5
:0205a6002137fb
:0205a700213001
:0205a800212a06
:0205a90021230c
:0205aa00211c12
:0205ab00211617
:0205ac00210f1d
:0205ad00210922
:0205ae00210327
:0205af0020fd2d
:0205b00020f633
:0205b10020f038
:0205b20020ea3d
:0205b30020e442
:0205b40020df46
:0205b50020d94b
:0205b60020d350
:0205b70020ce54
:0205b80020c859
:0205b90020c35d
:0205ba0020bd62
:0205bb0020b866
:0205bc0020b36a
:0205bd0020ad6f
:0205be0020a873
:0205bf0020a377
:0205c000209e7b
:0205c100209a7e
:0205c200209582
:0205c300209086
:0205c400208b8a
:0205c50020878d
:0205c600208291
:0205c700207e94
:0205c800207a97
:0205c90020759b
:0205ca0020719e
:0205cb00206da1
:0205cc002069a4
:0205cd002065a7
:0205ce002061aa
:0205cf00205dad
:0205d000205aaf
:0205d1002056b2
:0205d2002052b5
:0205d300204fb7
:0205d400204cb9
:0205d5002048bc
:0205d6002045be
:0205d7002042c0
:0205d800203fc2
:0205d900203cc4
:0205da002039c6
:0205db002036c8
:0205dc002033ca
:0205dd002030cc
:0205de00202ecd
:0205df00202bcf
:0205e0002028d1
:0205e1002026d2
:0205e2002024d3
:0205e3002021d5
:0205e400201fd6
:0205e500201dd7
:0205e600201bd8
:0205e7002019d9
:0205e8002017da
:0205e9002015db
:0205ea002014db
:0205eb002012dc
:0205ec002010dd
:0205ed00200fdd
:0205ee00200dde
:0205ef00200cde
:0205f000200bde
:0205f100200ade
:0205f2002009de
:0205f3002008de
:0205f4002007de
:0205f5002006de
:0205f6002005de
:0205f7002004de
:0205f8002003de
:0205f9002003dd
:0205fa002002dd
:0205fb002002dc
:0205fc002002db
:0205fd002001db
:0205fe002001da
:0205ff002001d9
:020600002001d7
:020601002001d6
:020602002001d5
:020603002001d4
:020604002002d2
:020605002002d1
:020606002002d0
:020607002003ce
:020608002003cd
:020609002004cb
:02060a002005c9
:02060b002006c7
:02060c002007c5
:02060d002008c3
:02060e002009c1
:02060f00200abf
:02061000200bbd
:02061100200cbb
:02061200200db9
:02061300200fb6
:020614002010b4
:020615002012b1
:020616002014ae
:020617002015ac
:020618002017a9
:020619002019a6
:02061a00201ba3
:02061b00201da0
:02061c00201f9d
:02061d0020219a
:02061e00202496
:02061f00202693
:02062000202890
:02062100202b8c
:02062200202e88
:02062300203085
:02062400203381
:0206250020367d
:02062600203979
:02062700203c75
:02062800203f71
:0206290020426d
:02062a00204569
:02062b00204865
:02062c00204c60
:02062d00204f5c
:02062e00205258
:02062f00205653
:02063000205a4e
:02063100205d4a
:02063200206145
:02063300206540
:0206340020693b
:02063500206d36
:02063600207131
:0206370020752c
:02063800207a26
:02063900207e21
:02063a0020821c
:02063b00208716
:02063c00208b11
:02063d0020900b
:02063e00209505
:02063f00209aff
:02064000209efa
:0206410020a3f4
:0206420020a8ee
:0206430020ade8
:0206440020b3e1
:0206450020b8db
:0206460020bdd5
:0206470020c3ce
:0206480020c8c8
:0206490020cec1
:02064a0020d3bb
:02064b0020d9b4
:02064c0020dfad
:02064d0020e4a7
:02064e0020eaa0
:02064f0020f099
:0206500020f692
:0206510020fd8a
:02065200210382
:0206530021097b
:02065400210f74
:0206550021166c
:02065600211c65
:0206570021235d
:02065800212a55
:0206590021304e
:02065a00213746
:02065b00213e3e
:02065c00214536
:02065d00214c2e
:02065e00215326
:02065f00215a1e
:02066000216215
:0206610021690d
:02066200217005
:020663002178fc
:02066400217ff4
:020665002187eb
:02066600218fe2
:020667002197d9
:02066800219ed1
:0206690021a6c8
:02066a0021aebf
:02066b0021b6b6
:02066c0021bfac
:02066d0021c7a3
:02066e0021cf9a
:02066f0021d791
:0206700021e087
:0206710021e87e
:0206720021f174
:0206730021fa6a
:02067400220260
:02067500220b56
:0206760022144c
:02067700221d42
:02067800222638
:02067900222f2e
:02067a00223824
:02067b0022411a
:02067c00224b0f
:02067d00225405
:02067e00225dfb
:02067f002267f0
:020680002271e5
:02068100227adb
:020682002284d0
:02068300228ec5
:020684002298ba
:0206850022a1b0
:0206860022aba5
:0206870022b699
:0206880022c08e
:0206890022ca83
:02068a0022d478
:02068b0022df6c
:02068c0022e961
:02068d0022f455
:02068e0022fe4a
:02068f0023093d
:02069000231332
:02069100231e26
:0206920023291a
:0206930023340e
:02069400233f02
:02069500234af6
:020696002355ea
:020697002360de
:02069800236cd1
:020699002377c5
:02069a002382b9
:02069b00238eac
:02069c002399a0
:02069d0023a593
:02069e0023b186
:02069f0023bc7a
:0206a00023c86d
:0206a10023d460
:0206a20023e053
:0206a30023ec46
:0206a40023f839
:0206a50024042b
:0206a60024101e
:0206a700241d10
:0206a800242903
:0206a9002436f5
:0206aa002442e8
:0206ab00244fda
:0206ac00245bcd
:0206ad002468bf
:0206ae002475b1
:0206af002481a4
:0206b000248e96
:0206b100249b88
:0206b20024a87a
:0206b30024b56c
:0206b40024c35d
:0206b50024d04f
:0206b60024dd41
:0206b70024ea33
:0206b80024f824
:0206b900250515
:0206ba00251306
:0206bb002520f8
:0206bc00252ee9
:0206bd00253cda
:0206be00254acb
:0206bf002558bc
:0206c0002565ae
:0206c10025739f
:0206c200258190
:0206c300259080
:0206c400259e71
:0206c50025ac62
:0206c60025ba53
:0206c70025c943
:0206c80025d734
:0206c90025e624
:0206ca0025f415
:0206cb00260304
:0206cc002612f4
:0206cd002620e5
:0206ce00262fd5
:0206cf00263ec5
:0206d000264db5
:0206d100265ca5
:0206d200266b95
:0206d300267a85
:0206d400268975
:0206d500269964
:0206d60026a854
:0206d70026b744
:0206d80026c733
:0206d90026d623
:0206da0026e612
:0206db0026f502
:0206dc002705f0
:0206dd002715df
:0206de002725ce
:0206df002734be
:0206e0002744ad
:0206e10027549c
:0206e20027648b
:0206e30027747a
:0206e400278568
:0206e500279557
:0206e60027a546
:0206e70027b535
:0206e80027c623
:0206e90027d612
:0206ea0027e700
:0206eb0027f7ef
:0206ec002808dc
:0206ed002818cb
:0206ee002829b9
:0206ef00283aa7
:0206f000284b95
:0206f100285c83
:0206f200286d71
:0206f300287e5f
:0206f400288f4d
:0206f50028a03b
:0206f60028b129
:0206f70028c217
:0206f80028d404
:0206f90028e5f2
:0206fa0028f6e0
:0206fb002908cc
:0206fc002919ba
:0206fd00292ba7
:0206fe00293d94
:0206ff00294e82
:0207000029606e
:0207010029725b
:02070200298448
:02070300299635
:0207040029a822
:0207050029ba0f
:0207060029ccfc
:0207070029dee9
:0207080029f0d6
:020709002a02c2
:02070a002a14af
:02070b002a279b
:02070c002a3988
:02070d002a4c74
:02070e002a5e61
:02070f002a714d
:020710002a833a
:020711002a9626
:020712002aa912
:020713002abbff
:020714002aceeb
:020715002ae1d7
:020716002af4c3
:020717002b07ae
:020718002b1a9a
:020719002b2d86
:02071a002b4072
:02071b002b535e
:02071c002b664a
:02071d002b7a35
:02071e002b8d21
:02071f002ba00d
:020720002bb4f8
:020721002bc7e4
:020722002bdbcf
:020723002beebb
:020724002c02a5
:020725002c1591
:020726002c297c
:020727002c3d67
:020728002c5152
:020729002c643e
:02072a002c7829
:02072b002c8c14
:02072c002ca0ff
:02072d002cb4ea
:02072e002cc8d5
:02072f002cdcc0
:020730002cf1aa
:020731002d0594
:020732002d197f
:020733002d2d6a
:020734002d4254
:020735002d563f
:020736002d6b29
:020737002d7f14
:020738002d94fe
:020739002da8e9
:02073a002dbdd3
:02073b002dd1be
:02073c002de6a8
:02073d002dfb92
:02073e002e107b
:02073f002e2466
:020740002e3950
:020741002e4e3a
:020742002e6324
:020743002e780e
:020744002e8df8
:020745002ea2e2
:020746002eb7cc
:020747002ecdb5
:020748002ee29f
:020749002ef789
:02074a002f0c72
:02074b002f225b
:02074c002f3745
:02074d002f4d2e
:02074e002f6218
:02074f002f7702
:020750002f8deb
:020751002fa3d4
:020752002fb8be
:020753002fcea7
:020754002fe490
:020755002ff97a
:02075600300f62
:0207570030254b
:02075800303b34
:0207590030511d
:02075a00306607
:02075b00307cf0
:02075c003092d9
:02075d0030a8c2
:02075e0030bfaa
:02075f0030d593
:0207600030eb7c
:02076100310164
:0207620031174d
:02076300312d36
:0207640031441e
:02076500315a07
:020766003170f0
:020767003187d8
:02076800319dc1
:0207690031b4a9
:02076a0031ca92
:02076b0031e17a
:02076c0031f763
:02076d00320e4a
:02076e00322532
:02076f00323b1b
:02077000325203
:020771003269eb
:02077200327fd4
:020773003296bc
:0207740032ada4
:0207750032c48c
:0207760032db74
:0207770032f25c
:02077800330943
:0207790033202b
:02077a00333713
:02077b00334efb
:02077c003365e3
:02077d00337ccb
:02077e003393b3
:02077f0033aa9b
:0207800033c183
:0207810033d96a
:0207820033f052
:02078300340739
:02078400341f20
:02078500343608
:02078600344df0
:020787003465d7
:02078800347cbf
:020789003494a6
:02078a0034ab8e
:02078b0034c375
:02078c0034da5d
:02078d0034f244
:02078e0035092b
:02078f00352112
:020790003539f9
:020791003550e1
:020792003568c8
:020793003580af
:02079400359797
:0207950035af7e
:0207960035c765
:0207970035df4c
:0207980035f733
:02079900360f19
:02079a00362601
:02079b00363ee8
:02079c003656cf
:02079d00366eb6
:02079e0036869d
:02079f00369e84
:0207a00036b66b
:0207a10036ce52
:0207a20036e639
:0207a30036ff1f
:0207a400371705
:0207a500372fec
:0207a6003747d3
:0207a700375fba
:0207a8003777a1
:0207a900379087
:0207aa0037a86e
:0207ab0037c055
:0207ac0037d83c
:0207ad0037f122
:0207ae00380908
:0207af003821ef
:0207b000383ad5
:0207b1003852bc
:0207b200386ba2
:0207b300388389
:0207b400389b70
:0207b50038b456
:0207b60038cc3d
:0207b70038e523
:0207b80038fd0a
:0207b9003916ef
:0207ba00392ed6
:0207bb003947bc
:0207bc003960a2
:0207bd00397889
:0207be0039916f
:0207bf0039a956
:0207c00039c23c
:0207c10039db22
:0207c20039f309
:0207c3003a0cee
:0207c4003a25d4
:0207c5003a3dbb
:0207c6003a56a1
:0207c7003a6f87
:0207c8003a886d
:0207c9003aa054
:0207ca003ab93a
:0207cb003ad220
:0207cc003aeb06
:0207cd003b04eb
:0207ce003b1cd2
:0207cf003b35b8
:0207d0003b4e9e
:0207d1003b6784
:0207d2003b806a
:0207d3003b9950
:0207d4003bb236
:0207d5003bcb1c
:0207d6003be303
:0207d7003bfce9
:0207d8003c15ce
:0207d9003c2eb4
:0207da003c479a
:0207db003c6080
:0207dc003c7966
:0207dd003c924c
:0207de003cab32
:0207df003cc418
:0207e0003cddfe
:0207e1003cf6e4
:0207e2003d0fc9
:0207e3003d28af
:0207e4003d4195
:0207e5003d5a7b
:0207e6003d7361
:0207e7003d8c47
:0207e8003da52d
:0207e9003dbe13
:0207ea003dd8f8
:0207eb003df1de
:0207ec003e0ac3
:0207ed003e23a9
:0207ee003e3c8f
:0207ef003e5575
:0207f0003e6e5b
:0207f1003e8741
:0207f2003ea027
:0207f3003eb90d
:0207f4003ed3f2
:0207f5003eecd8
:0207f6003f05bd
:0207f7003f1ea3
:0207f8003f3789
:0207f9003f506f
:0207fa003f6955
:0207fb003f823b
:0207fc003f9b21
:0207fd003fb506
:0207fe003fceec
:0207ff003fe7d2
:00000001FF
