:020000040000FA
:030000001FFFFFE0
:0300010008952A35
:03000200367E192E
:030003003A2B9104
:0300040004D4FD24
:03000500044A1F8B
:030006003D04F9BD
:030007003C99E63B
:0300080001FF6194
:0300090002CFDB48
:03000A003E9B4CCE
:03000B003D9B5AC0
:03000C0000FBA551
:03000D0002125587
:03000E003F4F92CF
:03000F003E2F7809
:030010000078086D
:030011000199A2B0
:030012003FB30FEA
:030013003E951FF8
:03001400002B437B
:030015000142069F
:030016003FEF16A3
:030017003EE205C1
:030018003FFC2387
:0300190000FDB235
:03001A0000140DC2
:03001B003F1F5034
:03001C003FDF665D
:03001D0000C666B4
:03001E00002A0BAA
:03001F003F5166E8
:030020003FCF06C9
:030021000098F94B
:030022000035BCEA
:030023003F7A9E83
:030024003FC7458E
:0300250000739FC6
:03002600003A3469
:030027003F9C6596
:030028003FC58C45
:0300290000552E51
:03002A000039A9F1
:03002B003FB7B923
:03002C003FC7F1DA
:03002D00003CC4D0
:03002E000035CAD0
:03002F003FCD6A58
:030030003FCCF7CB
:0300310000299E05
:03003200002FE7B5
:030033003FDE3677
:030034003FD3783F
:03003500001B01AC
:030036000029039B
:030037003FEAD2CB
:030038003FDA901C
:0300390000103A7A
:03003A000021E1C1
:03003B003FF3EFA1
:03003C003FE19908
:03003D0000089C1C
:03003E00001B0D97
:03003F003FFA374E
:030040003FE82175
:0300410000038237
:030042000014E3C4
:030043003FFE4934
:030044003FEDE0AD
:0300450000005662
:03004600000F9711
:030047000000AF07
:030048003FF2B4D0
:030049003FFE95E2
:03004A00000B3C6C
:03004B000001E7CA
:03004C003FF698E4
:03004D003FFDCEA6
:03004E000007CDDB
:03004F0000025557
:030050003FF999DC
:030051003FFDA7C9
:0300520000053472
:0300530000024761
:030054003FFBD29D
:030055003FFDDB91
:0300560000035252
:030057000001F8AD
:030058003FFD6603
:030059003FFE3B2C
:03005A000002049D
:03005B0000019011
:03005C003FFE76EE
:03005D003FFEA5BE
:03005E0000012876
:03005F0000012875
:030060003FFF2639
:030061003FFF0757
:0300620000009EFD
:030063000000CECC
:030064003FFF90CB
:030065003FFF5802
:0300660000004D4A
:030067000000870F
:030068003FFFCC8B
:030069003FFF94C2
:03006A0000002172
:03006B000000543E
:03006C003FFFEC67
:03006D003FFFBF93
:03006E0000000B84
:03006F000000325C
:030070003FFFFB54
:030071003FFFDB73
:0300720000000289
:0300730000001B6F
:0300740000000089
:030075003FFFEC5E
:030076003FFFFF4A
:0300770000000E78
:0300780000000184
:030079003FFFF650
:03007A003FFFFF46
:03007B000000077B
:03007C0000000180
:03007D003FFFFC46
:03007E003FFFFF42
:03007F000000027C
:00000001ff
