:020000040000FA
:020000000304F7
:020001000302F8
:020002000300F9
:0200030002FEFB
:0200040002FCFC
:0200050002FAFD
:0200060002F8FE
:0200070002F6FF
:0200080002F400
:0200090002F201
:02000A0002F002
:02000B0002EE03
:02000C0002EC04
:02000D0002EA05
:02000E0002E806
:02000F0002E607
:0200100002E408
:0200110002E209
:0200120002E00A
:0200130002DE0B
:0200140002DC0C
:0200150002DA0D
:0200160002D80E
:0200170002D60F
:0200180002D410
:0200190002D211
:02001A0002D012
:02001B0002CE13
:02001C0002CC14
:02001D0002CA15
:02001E0002C816
:02001F0002C617
:0200200002C418
:0200210002C219
:0200220002C01A
:0200230002BE1B
:0200240002BC1C
:0200250002BA1D
:0200260002B81E
:0200270002B61F
:0200280002B420
:0200290002B221
:02002A0002B022
:02002B0002AE23
:02002C0002AC24
:02002D0002AA25
:02002E0002A826
:02002F0002A627
:0200300002A428
:0200310002A229
:0200320002A02A
:02003300029E2B
:02003400029C2C
:02003500029A2D
:0200360002982E
:0200370002962F
:02003800029430
:02003900029231
:02003A00029032
:02003B00028E33
:02003C00028C34
:02003D00028A35
:02003E00028836
:02003F00028637
:02004000028438
:02004100028239
:0200420002803A
:02004300027E3B
:02004400027C3C
:02004500027A3D
:0200460002783E
:0200470002763F
:02004800027440
:02004900027241
:02004A00027042
:02004B00026E43
:02004C00026C44
:02004D00026A45
:02004E00026846
:02004F00026647
:02005000026448
:02005100026249
:0200520002604A
:02005300025E4B
:02005400025C4C
:02005500025A4D
:0200560002584E
:0200570002564F
:02005800025450
:02005900025251
:02005A00025052
:02005B00024E53
:02005C00024C54
:02005D00024A55
:02005E00024856
:02005F00024657
:02006000024458
:02006100024259
:0200620002405A
:02006300023E5B
:02006400023C5C
:02006500023A5D
:0200660002385E
:0200670002365F
:02006800023460
:02006900023261
:02006A00023062
:02006B00022E63
:02006C00022C64
:02006D00022A65
:02006E00022866
:02006F00022667
:02007000022468
:02007100022269
:0200720002206A
:02007300021E6B
:02007400021C6C
:02007500021A6D
:0200760002186E
:0200770002166F
:02007800021470
:02007900021271
:02007A00021072
:02007B00020E73
:02007C00020C74
:02007D00020A75
:02007E00020876
:02007F00020677
:00000001ff
